{
    "contractName": "JobPortal",
    "abi": [
        {
            "inputs": [],
            "stateMutability": "nonpayable",
            "type": "constructor"
        },
        {
            "anonymous": false,
            "inputs": [
                {
                    "indexed": false,
                    "internalType": "uint256",
                    "name": "jobId",
                    "type": "uint256"
                },
                {
                    "indexed": false,
                    "internalType": "uint256",
                    "name": "applicantId",
                    "type": "uint256"
                }
            ],
            "name": "JobApplication",
            "type": "event"
        },
        {
            "anonymous": false,
            "inputs": [
                {
                    "indexed": false,
                    "internalType": "uint256",
                    "name": "jobId",
                    "type": "uint256"
                },
                {
                    "indexed": false,
                    "internalType": "uint256",
                    "name": "applicantId",
                    "type": "uint256"
                }
            ],
            "name": "JobHired",
            "type": "event"
        },
        {
            "anonymous": false,
            "inputs": [
                {
                    "indexed": false,
                    "internalType": "uint256",
                    "name": "applicantId",
                    "type": "uint256"
                },
                {
                    "indexed": false,
                    "internalType": "string",
                    "name": "name",
                    "type": "string"
                },
                {
                    "indexed": false,
                    "internalType": "string",
                    "name": "skills",
                    "type": "string"
                },
                {
                    "indexed": false,
                    "internalType": "string",
                    "name": "phoneNumber",
                    "type": "string"
                },
                {
                    "indexed": false,
                    "internalType": "string",
                    "name": "email",
                    "type": "string"
                },
                {
                    "indexed": false,
                    "internalType": "enum JobPortal.WorkPreference",
                    "name": "workPreference",
                    "type": "uint8"
                }
            ],
            "name": "NewApplicant",
            "type": "event"
        },
        {
            "anonymous": false,
            "inputs": [
                {
                    "indexed": false,
                    "internalType": "uint256",
                    "name": "jobId",
                    "type": "uint256"
                },
                {
                    "indexed": false,
                    "internalType": "string",
                    "name": "title",
                    "type": "string"
                },
                {
                    "indexed": false,
                    "internalType": "string",
                    "name": "description",
                    "type": "string"
                },
                {
                    "indexed": false,
                    "internalType": "uint256",
                    "name": "salary",
                    "type": "uint256"
                }
            ],
            "name": "NewJob",
            "type": "event"
        },
        {
            "anonymous": false,
            "inputs": [
                {
                    "indexed": false,
                    "internalType": "uint256",
                    "name": "applicantId",
                    "type": "uint256"
                },
                {
                    "indexed": false,
                    "internalType": "uint256",
                    "name": "rating",
                    "type": "uint256"
                }
            ],
            "name": "RatingGiven",
            "type": "event"
        },
        {
            "anonymous": false,
            "inputs": [
                {
                    "indexed": false,
                    "internalType": "uint256",
                    "name": "applicantId",
                    "type": "uint256"
                },
                {
                    "indexed": false,
                    "internalType": "enum JobPortal.WorkPreference",
                    "name": "workPreference",
                    "type": "uint8"
                }
            ],
            "name": "WorkPreferenceUpdated",
            "type": "event"
        },
        {
            "inputs": [
                {
                    "internalType": "string",
                    "name": "_name",
                    "type": "string"
                },
                {
                    "internalType": "string",
                    "name": "_skills",
                    "type": "string"
                },
                {
                    "internalType": "string",
                    "name": "_phoneNumber",
                    "type": "string"
                },
                {
                    "internalType": "string",
                    "name": "_email",
                    "type": "string"
                },
                {
                    "internalType": "enum JobPortal.WorkPreference",
                    "name": "_workPreference",
                    "type": "uint8"
                }
            ],
            "name": "addApplicant",
            "outputs": [],
            "stateMutability": "nonpayable",
            "type": "function"
        },
        {
            "inputs": [
                {
                    "internalType": "string",
                    "name": "_title",
                    "type": "string"
                },
                {
                    "internalType": "string",
                    "name": "_description",
                    "type": "string"
                },
                {
                    "internalType": "uint256",
                    "name": "_salary",
                    "type": "uint256"
                }
            ],
            "name": "addJob",
            "outputs": [],
            "stateMutability": "nonpayable",
            "type": "function"
        },
        {
            "inputs": [],
            "name": "admin",
            "outputs": [
                {
                    "internalType": "address",
                    "name": "",
                    "type": "address"
                }
            ],
            "stateMutability": "view",
            "type": "function"
        },
        {
            "inputs": [
                {
                    "internalType": "uint256",
                    "name": "",
                    "type": "uint256"
                }
            ],
            "name": "allApplicants",
            "outputs": [
                {
                    "internalType": "uint256",
                    "name": "id",
                    "type": "uint256"
                },
                {
                    "internalType": "string",
                    "name": "name",
                    "type": "string"
                },
                {
                    "internalType": "string",
                    "name": "skills",
                    "type": "string"
                },
                {
                    "internalType": "string",
                    "name": "phoneNumber",
                    "type": "string"
                },
                {
                    "internalType": "string",
                    "name": "email",
                    "type": "string"
                },
                {
                    "internalType": "uint256",
                    "name": "rating",
                    "type": "uint256"
                },
                {
                    "internalType": "enum JobPortal.WorkPreference",
                    "name": "workPreference",
                    "type": "uint8"
                }
            ],
            "stateMutability": "view",
            "type": "function"
        },
        {
            "inputs": [
                {
                    "internalType": "uint256",
                    "name": "",
                    "type": "uint256"
                }
            ],
            "name": "allJobs",
            "outputs": [
                {
                    "internalType": "uint256",
                    "name": "id",
                    "type": "uint256"
                },
                {
                    "internalType": "string",
                    "name": "title",
                    "type": "string"
                },
                {
                    "internalType": "string",
                    "name": "description",
                    "type": "string"
                },
                {
                    "internalType": "uint256",
                    "name": "salary",
                    "type": "uint256"
                },
                {
                    "internalType": "uint256",
                    "name": "applicantId",
                    "type": "uint256"
                },
                {
                    "internalType": "bool",
                    "name": "isFilled",
                    "type": "bool"
                }
            ],
            "stateMutability": "view",
            "type": "function"
        },
        {
            "inputs": [
                {
                    "internalType": "uint256",
                    "name": "_jobId",
                    "type": "uint256"
                }
            ],
            "name": "applyForJob",
            "outputs": [],
            "stateMutability": "nonpayable",
            "type": "function"
        },
        {
            "inputs": [],
            "name": "getAllApplicants",
            "outputs": [
                {
                    "components": [
                        {
                            "internalType": "uint256",
                            "name": "id",
                            "type": "uint256"
                        },
                        {
                            "internalType": "string",
                            "name": "name",
                            "type": "string"
                        },
                        {
                            "internalType": "string",
                            "name": "skills",
                            "type": "string"
                        },
                        {
                            "internalType": "string",
                            "name": "phoneNumber",
                            "type": "string"
                        },
                        {
                            "internalType": "string",
                            "name": "email",
                            "type": "string"
                        },
                        {
                            "internalType": "uint256",
                            "name": "rating",
                            "type": "uint256"
                        },
                        {
                            "internalType": "enum JobPortal.WorkPreference",
                            "name": "workPreference",
                            "type": "uint8"
                        }
                    ],
                    "internalType": "struct JobPortal.Applicant[]",
                    "name": "",
                    "type": "tuple[]"
                }
            ],
            "stateMutability": "view",
            "type": "function"
        },
        {
            "inputs": [],
            "name": "getAllJobDetails",
            "outputs": [
                {
                    "components": [
                        {
                            "internalType": "uint256",
                            "name": "id",
                            "type": "uint256"
                        },
                        {
                            "internalType": "string",
                            "name": "title",
                            "type": "string"
                        },
                        {
                            "internalType": "string",
                            "name": "description",
                            "type": "string"
                        },
                        {
                            "internalType": "uint256",
                            "name": "salary",
                            "type": "uint256"
                        },
                        {
                            "internalType": "uint256",
                            "name": "applicantId",
                            "type": "uint256"
                        },
                        {
                            "internalType": "bool",
                            "name": "isFilled",
                            "type": "bool"
                        }
                    ],
                    "internalType": "struct JobPortal.Job[]",
                    "name": "",
                    "type": "tuple[]"
                }
            ],
            "stateMutability": "view",
            "type": "function"
        },
        {
            "inputs": [
                {
                    "internalType": "uint256",
                    "name": "_applicantId",
                    "type": "uint256"
                }
            ],
            "name": "getApplicantDetails",
            "outputs": [
                {
                    "internalType": "uint256",
                    "name": "",
                    "type": "uint256"
                },
                {
                    "internalType": "string",
                    "name": "",
                    "type": "string"
                },
                {
                    "internalType": "string",
                    "name": "",
                    "type": "string"
                },
                {
                    "internalType": "string",
                    "name": "",
                    "type": "string"
                },
                {
                    "internalType": "string",
                    "name": "",
                    "type": "string"
                },
                {
                    "internalType": "uint256",
                    "name": "",
                    "type": "uint256"
                },
                {
                    "internalType": "enum JobPortal.WorkPreference",
                    "name": "",
                    "type": "uint8"
                }
            ],
            "stateMutability": "view",
            "type": "function"
        },
        {
            "inputs": [
                {
                    "internalType": "uint256",
                    "name": "_applicantId",
                    "type": "uint256"
                }
            ],
            "name": "getApplicantRating",
            "outputs": [
                {
                    "internalType": "uint256",
                    "name": "",
                    "type": "uint256"
                }
            ],
            "stateMutability": "view",
            "type": "function"
        },
        {
            "inputs": [
                {
                    "internalType": "uint256",
                    "name": "_applicantId",
                    "type": "uint256"
                }
            ],
            "name": "getApplicantType",
            "outputs": [
                {
                    "internalType": "enum JobPortal.WorkPreference",
                    "name": "",
                    "type": "uint8"
                }
            ],
            "stateMutability": "view",
            "type": "function"
        },
        {
            "inputs": [
                {
                    "internalType": "uint256",
                    "name": "_jobId",
                    "type": "uint256"
                }
            ],
            "name": "getJobDetails",
            "outputs": [
                {
                    "internalType": "uint256",
                    "name": "",
                    "type": "uint256"
                },
                {
                    "internalType": "string",
                    "name": "",
                    "type": "string"
                },
                {
                    "internalType": "string",
                    "name": "",
                    "type": "string"
                },
                {
                    "internalType": "uint256",
                    "name": "",
                    "type": "uint256"
                },
                {
                    "internalType": "uint256",
                    "name": "",
                    "type": "uint256"
                },
                {
                    "internalType": "bool",
                    "name": "",
                    "type": "bool"
                }
            ],
            "stateMutability": "view",
            "type": "function"
        },
        {
            "inputs": [
                {
                    "internalType": "uint256",
                    "name": "_jobId",
                    "type": "uint256"
                },
                {
                    "internalType": "uint256",
                    "name": "_applicantId",
                    "type": "uint256"
                }
            ],
            "name": "hireApplicant",
            "outputs": [],
            "stateMutability": "nonpayable",
            "type": "function"
        },
        {
            "inputs": [
                {
                    "internalType": "address",
                    "name": "",
                    "type": "address"
                },
                {
                    "internalType": "uint256",
                    "name": "",
                    "type": "uint256"
                }
            ],
            "name": "jobApplications",
            "outputs": [
                {
                    "internalType": "bool",
                    "name": "",
                    "type": "bool"
                }
            ],
            "stateMutability": "view",
            "type": "function"
        },
        {
            "inputs": [
                {
                    "internalType": "uint256",
                    "name": "_applicantId",
                    "type": "uint256"
                },
                {
                    "internalType": "uint256",
                    "name": "_rating",
                    "type": "uint256"
                }
            ],
            "name": "provideRating",
            "outputs": [],
            "stateMutability": "nonpayable",
            "type": "function"
        },
        {
            "inputs": [
                {
                    "internalType": "uint256",
                    "name": "_applicantId",
                    "type": "uint256"
                },
                {
                    "internalType": "enum JobPortal.WorkPreference",
                    "name": "_workPreference",
                    "type": "uint8"
                }
            ],
            "name": "updateWorkPreference",
            "outputs": [],
            "stateMutability": "nonpayable",
            "type": "function"
        }
    ],
    "bytecode": "608080604052346026575f80546001600160a01b03191633179055611955908161002b8239f35b5f80fdfe6080806040526004361015610012575f80fd5b5f3560e01c9081630a068f9c146114035750806324e0a178146112e35780632dd5afd51461129e578063382fe844146111bd578063388d5399146110695780633c8d084314610f3b5780634cac35c614610ecd5780638798a47b14610e5157806389fb135214610d7a57806390c3e97914610d14578063a7c610d7146106e9578063c07d1f601461066b578063d280267d1461061c578063e0c94ae5146104ca578063f851a440146104a35763fa6b104a146100cc575f80fd5b3461049f57606036600319011261049f576004356001600160401b03811161049f576100fc903690600401611699565b6024356001600160401b03811161049f5761011b903690600401611699565b906044359161013460018060a01b035f5416331461170a565b60025492600184019182851161048b5760405194610151866115bf565b838652602086019585875260408101968388526060820185815260808301915f835260a08401945f8652600160401b8110156103a657610194908960025561153c565b9490946104785751845551805160018501916001600160401b0382116103a65781906101c0845461156c565b601f8111610428575b50602090601f83116001146103c5575f926103ba575b50508160011b915f199060031b1c19161790555b6002830198519889516001600160401b0381116103a657610214825461156c565b601f8111610361575b506020601f82116001146102d35791816102bd9897969492600596947fe290a688cee8c01d2647d85bcce36965750716252d4b1d835491cb9bfbd3398b9e5f926102c8575b50508160011b915f199060031b1c19161790555b516003830155516004820155019051151560ff801983541691161790556102af6040519586958652608060208701526080860190611462565b908482036040860152611462565b9060608301520390a1005b015190505f80610262565b601f1982169b835f52815f209c5f5b8181106103495750927fe290a688cee8c01d2647d85bcce36965750716252d4b1d835491cb9bfbd3398b9d6005979593600193836102bd9d9c9b999710610331575b505050811b019055610276565b01515f1960f88460031b161c191690555f8080610324565b838301518f556001909e019d602093840193016102e2565b825f5260205f20601f830160051c8101916020841061039c575b601f0160051c01905b818110610391575061021d565b5f8155600101610384565b909150819061037b565b634e487b7160e01b5f52604160045260245ffd5b015190505f806101df565b5f8581528281209350601f198516905b81811061041057509084600195949392106103f8575b505050811b0190556101f3565b01515f1960f88460031b161c191690555f80806103eb565b929360206001819287860151815501950193016103d5565b909150835f5260205f20601f840160051c8101916020851061046e575b90601f859493920160051c01905b81811061046057506101c9565b5f8155849350600101610453565b9091508190610445565b634e487b7160e01b5f525f60045260245ffd5b634e487b7160e01b5f52601160045260245ffd5b5f80fd5b3461049f575f36600319011261049f575f546040516001600160a01b039091168152602090f35b3461049f57602036600319011261049f5760043560018060a01b035f541633146105d7576104fc6002548211156118e2565b5f19810181811161048b5760ff60056105176105219361153c565b5001541615611756565b335f52600360205260405f20815f5260205260ff60405f2054166105925760407f74c2e21a7cf776d95db7d76f0ce5a1739d25b620c588425e8d5901427daef8fc91335f526003602052815f20815f52602052815f20600160ff1982541617905560015482519182526020820152a1005b60405162461bcd60e51b815260206004820152601c60248201527f416c7265616479206170706c69656420666f722074686973206a6f62000000006044820152606490fd5b60405162461bcd60e51b815260206004820152601c60248201527f41646d696e2063616e6e6f74206170706c7920666f722061206a6f62000000006044820152606490fd5b3461049f57602036600319011261049f5760043561063e600154821115611797565b5f19810190811161048b5760ff60066106586020936116ee565b500154166106696040518092611486565bf35b3461049f57602036600319011261049f5760043560015481101561049f57610692906116ee565b5080546106e56106a4600184016115fb565b926106b1600282016115fb565b906106be600382016115fb565b6106ca600483016115fb565b9060ff600660058501549401541693604051978897886114d6565b0390f35b3461049f5760a036600319011261049f576004356001600160401b03811161049f57610719903690600401611699565b6024356001600160401b03811161049f57610738903690600401611699565b906044356001600160401b03811161049f57610758903690600401611699565b916064356001600160401b03811161049f57610778903690600401611699565b9060843590600482101561049f5761079a60018060a01b035f5416331461170a565b60015490600182019384831161048b57604051926107b7846115a4565b8584526020840187815260408501848152606086018a8152608087019185835260a08801935f855260c08901956107ee8b88611809565b600160401b8110156103a657610807908c6001556116ee565b9990996104785751895551805160018a01916001600160401b0382116103a6578190610833845461156c565b601f8111610cc4575b50602090601f8311600114610c61575f92610c56575b50508160011b915f199060031b1c19161790555b51805160028901916001600160401b0382116103a6578190610888845461156c565b601f8111610c06575b50602090601f8311600114610ba3575f92610b98575b50508160011b915f199060031b1c19161790555b51805160038801916001600160401b0382116103a65781906108dd845461156c565b601f8111610b48575b50602090601f8311600114610ae5575f92610ada575b50508160011b915f199060031b1c19161790555b51805160048701916001600160401b0382116103a6578190610932845461156c565b601f8111610a8a575b50602090601f8311600114610a27575f92610a1c575b50508160011b915f199060031b1c19161790555b51600585015551926004841015610a08577f48b266ad93739ac0eba1a90b6930e716fcc30b16712cb5e7adca200d4ef00edc976109dc6109f8946109b2610a039760066109ea96016117da565b6109ce6040519a8b9a8b5260c060208c015260c08b0190611462565b9089820360408b0152611462565b908782036060890152611462565b908582036080870152611462565b9160a0840190611486565b0390a1005b634e487b7160e01b5f52602160045260245ffd5b015190508c80610951565b5f8581528281209350601f198516905b818110610a725750908460019594939210610a5a575b505050811b019055610965565b01515f1960f88460031b161c191690558c8080610a4d565b92936020600181928786015181550195019301610a37565b909150835f5260205f20601f840160051c81019160208510610ad0575b90601f859493920160051c01905b818110610ac2575061093b565b5f8155849350600101610ab5565b9091508190610aa7565b015190508d806108fc565b5f8581528281209350601f198516905b818110610b305750908460019594939210610b18575b505050811b019055610910565b01515f1960f88460031b161c191690558d8080610b0b565b92936020600181928786015181550195019301610af5565b909150835f5260205f20601f840160051c81019160208510610b8e575b90601f859493920160051c01905b818110610b8057506108e6565b5f8155849350600101610b73565b9091508190610b65565b015190508e806108a7565b5f8581528281209350601f198516905b818110610bee5750908460019594939210610bd6575b505050811b0190556108bb565b01515f1960f88460031b161c191690558e8080610bc9565b92936020600181928786015181550195019301610bb3565b909150835f5260205f20601f840160051c81019160208510610c4c575b90601f859493920160051c01905b818110610c3e5750610891565b5f8155849350600101610c31565b9091508190610c23565b015190508f80610852565b5f8581528281209350601f198516905b818110610cac5750908460019594939210610c94575b505050811b019055610866565b01515f1960f88460031b161c191690558f8080610c87565b92936020600181928786015181550195019301610c71565b909150835f5260205f20601f840160051c81019160208510610d0a575b90601f859493920160051c01905b818110610cfc575061083c565b5f8155849350600101610cef565b9091508190610ce1565b3461049f57602036600319011261049f5760043560025481101561049f57610d3b9061153c565b5080546106e5610d4d600184016115fb565b92610d5a600282016115fb565b90600381015460ff60056004840154930154169260405196879687611493565b3461049f57610d883661144c565b90610d9d60018060a01b035f5416331461170a565b610dab600154821115611797565b60058211610e0c575f19810181811161048b57610dc96005916116ee565b50019081549280840180941161048b577fc076e56e2c8a1d006335cdcc00e3abddb6d5f3c8ec528e24803a971ac3ac3d59936040935582519182526020820152a1005b60405162461bcd60e51b815260206004820152601e60248201527f526174696e67206d757374206265206265747765656e203020616e64203500006044820152606490fd5b3461049f57602036600319011261049f57600435610e73600154821115611797565b5f19810190811161048b57610e8a610e90916116ee565b50611815565b8051602082015191604081015190606081015190608081015160c060a0830151920151926004841015610a08576106e594604051978897886114d6565b3461049f57602036600319011261049f57600435610eef6002548211156118e2565b5f19810190811161048b57610f06610f0c9161153c565b50611889565b80516106e5602083015192604081015190606081015160a0608083015192015115159260405196879687611493565b3461049f575f36600319011261049f57600254610f57816117f2565b90610f6560405192836115da565b80825260208201908160025f527f405787fa12a823e0f2b7631cc41b3ba8828b3321ca811111fa75cd3aa3bb5ace5f915b83831061104b57848660405191829160208301906020845251809152604083019060408160051b85010192915f905b828210610fd457505050500390f35b919360019193955060208091603f198982030185528751908151815260a08061101f61100d8686015160c08887015260c0860190611462565b60408601518582036040870152611462565b936060810151606085015260808101516080850152015115159101529601920192018594939192610fc5565b6006602060019261105b85611889565b815201920192019190610f96565b3461049f575f36600319011261049f57600154611085816117f2565b9061109360405192836115da565b80825260208201908160015f527fb10e2d527612073b26eecdfd717e6a320cf44b4afac2b0732d9fcbe2b7fa0cf65f915b83831061119f57848660405191829160208301906020845251809152604083019060408160051b85010192915f905b82821061110257505050500390f35b919360019193955060208091603f1989820301855261118f8851918251815260c08061117a6111686111566111448989015160e08b89015260e0880190611462565b60408901518782036040890152611462565b60608801518682036060880152611462565b60808701518582036080870152611462565b9460a081015160a08501520151910190611486565b96019201920185949391926110f3565b600760206001926111af85611815565b8152019201920191906110c4565b3461049f57604036600319011261049f57600435602435600481101561049f575f546001600160a01b031633148015611295575b1561125f57611204600154831115611797565b5f1982019180831161048b5761125c8261124d60409460066112467f0bad83b7a90c9dc1b8a5be71bcc5de5361f26514285632a467117bafc2532fd0986116ee565b50016117da565b83519283526020830190611486565ba1005b60405162461bcd60e51b815260206004820152600e60248201526d139bdd08185d5d1a1bdc9a5e995960921b6044820152606490fd5b503033146111f1565b3461049f57602036600319011261049f576004356112c0600154821115611797565b5f19810190811161048b5760056112d86020926116ee565b500154604051908152f35b3461049f576112f13661144c565b61130560018060a01b035f5416331461170a565b600254821115806113f7575b156113b2575f19820182811161048b5761134a8161133660ff6005610517819661153c565b8360046113428361153c565b50015561153c565b5001805460ff191660011790555f19810181811161048b5761136d6005916116ee565b5001918254915f19831461048b577f355280b0c04404596cde279a77aca96083bafbd709dc71682aee38acd3ddf4cf93600160409401905582519182526020820152a1005b60405162461bcd60e51b815260206004820152601b60248201527f496e76616c6964206a6f62206f72206170706c6963616e7420494400000000006044820152606490fd5b50600154811115611311565b3461049f57604036600319011261049f576004356001600160a01b038116919082900361049f576020915f526003825260405f206024355f52825260ff60405f20541615158152f35b604090600319011261049f576004359060243590565b805180835260209291819084018484015e5f828201840152601f01601f1916010190565b906004821015610a085752565b9491926114b660a0959897946114c493885260c0602089015260c0880190611462565b908682036040880152611462565b95606085015260808401521515910152565b9260c09461151161151f9261150361152d9661153a9b9d9c9a96895260e060208a015260e0890190611462565b908782036040890152611462565b908582036060870152611462565b908382036080850152611462565b9560a08201520190611486565b565b6002548110156115585760025f52600660205f20910201905f90565b634e487b7160e01b5f52603260045260245ffd5b90600182811c9216801561159a575b602083101461158657565b634e487b7160e01b5f52602260045260245ffd5b91607f169161157b565b60e081019081106001600160401b038211176103a657604052565b60c081019081106001600160401b038211176103a657604052565b90601f801991011681019081106001600160401b038211176103a657604052565b9060405191825f82549261160e8461156c565b80845293600181169081156116775750600114611633575b5061153a925003836115da565b90505f9291925260205f20905f915b81831061165b57505090602061153a928201015f611626565b6020919350806001915483858901015201910190918492611642565b90506020925061153a94915060ff191682840152151560051b8201015f611626565b81601f8201121561049f578035906001600160401b0382116103a657604051926116cd601f8401601f1916602001856115da565b8284526020838301011161049f57815f926020809301838601378301015290565b6001548110156115585760015f52600760205f20910201905f90565b1561171157565b60405162461bcd60e51b815260206004820152601b60248201527f4f6e6c792061646d696e2063616e2065786563757465207468697300000000006044820152606490fd5b1561175d57565b60405162461bcd60e51b8152602060048201526012602482015271129bd888185b1c9958591e48199a5b1b195960721b6044820152606490fd5b1561179e57565b60405162461bcd60e51b8152602060048201526014602482015273125b9d985b1a5908185c1c1b1a58d85b9d08125160621b6044820152606490fd5b906004811015610a085760ff80198354169116179055565b6001600160401b0381116103a65760051b60200190565b6004821015610a085752565b9061153a604051611825816115a4565b60c060ff600683968054855261183d600182016115fb565b602086015261184e600282016115fb565b604086015261185f600382016115fb565b6060860152611870600482016115fb565b6080860152600581015460a08601520154169101611809565b90604051611896816115bf565b60a060ff60058395805485526118ae600182016115fb565b60208601526118bf600282016115fb565b604086015260038101546060860152600481015460808601520154161515910152565b156118e957565b60405162461bcd60e51b815260206004820152600e60248201526d125b9d985b1a59081a9bd888125160921b6044820152606490fdfea2646970667358221220c1e6e40dad965419f1f6ceb953e21d741d92c3a0b6664ae878e61c64efbc565264736f6c634300081d0033",
    "sourcePath": "c:/CLG MU/SEM 6/BC/BC Projects/Project 1/project1.sol",
    "compiler": {
        "name": "solc",
        "version": "0.8.29+commit.ab55807c"
    },
    "functionHashes": {
        "addApplicant(string,string,string,string,uint8)": "a7c610d7",
        "addJob(string,string,uint256)": "fa6b104a",
        "admin()": "f851a440",
        "allApplicants(uint256)": "c07d1f60",
        "allJobs(uint256)": "90c3e979",
        "applyForJob(uint256)": "e0c94ae5",
        "getAllApplicants()": "388d5399",
        "getAllJobDetails()": "3c8d0843",
        "getApplicantDetails(uint256)": "8798a47b",
        "getApplicantRating(uint256)": "2dd5afd5",
        "getApplicantType(uint256)": "d280267d",
        "getJobDetails(uint256)": "4cac35c6",
        "hireApplicant(uint256,uint256)": "24e0a178",
        "jobApplications(address,uint256)": "0a068f9c",
        "provideRating(uint256,uint256)": "89fb1352",
        "updateWorkPreference(uint256,uint8)": "382fe844"
    },
    "gasEstimates": {
        "creation": {
            "codeDepositCost": "1297000",
            "executionCost": "25592",
            "totalCost": "1322592"
        },
        "external": {
            "addApplicant(string,string,string,string,uint8)": "infinite",
            "addJob(string,string,uint256)": "infinite",
            "admin()": "2587",
            "allApplicants(uint256)": "infinite",
            "allJobs(uint256)": "infinite",
            "applyForJob(uint256)": "39123",
            "getAllApplicants()": "infinite",
            "getAllJobDetails()": "infinite",
            "getApplicantDetails(uint256)": "infinite",
            "getApplicantRating(uint256)": "6720",
            "getApplicantType(uint256)": "7009",
            "getJobDetails(uint256)": "infinite",
            "hireApplicant(uint256,uint256)": "infinite",
            "jobApplications(address,uint256)": "2438",
            "provideRating(uint256,uint256)": "32507",
            "updateWorkPreference(uint256,uint8)": "32478"
        }
    }
}